{
  "abi": [
    {
      "inputs": [
        {
          "internalType": "string",
          "name": "_name",
          "type": "string"
        },
        {
          "internalType": "string",
          "name": "_symbol",
          "type": "string"
        }
      ],
      "stateMutability": "nonpayable",
      "type": "constructor"
    },
    {
      "anonymous": false,
      "inputs": [
        {
          "indexed": true,
          "internalType": "address",
          "name": "owner",
          "type": "address"
        },
        {
          "indexed": true,
          "internalType": "address",
          "name": "spender",
          "type": "address"
        },
        {
          "indexed": false,
          "internalType": "uint256",
          "name": "value",
          "type": "uint256"
        }
      ],
      "name": "Approval",
      "type": "event"
    },
    {
      "anonymous": false,
      "inputs": [
        {
          "indexed": true,
          "internalType": "address",
          "name": "_from",
          "type": "address"
        },
        {
          "indexed": true,
          "internalType": "address",
          "name": "_to",
          "type": "address"
        },
        {
          "indexed": false,
          "internalType": "uint256",
          "name": "value",
          "type": "uint256"
        }
      ],
      "name": "Transfer",
      "type": "event"
    },
    {
      "inputs": [
        {
          "internalType": "address",
          "name": "",
          "type": "address"
        },
        {
          "internalType": "address",
          "name": "",
          "type": "address"
        }
      ],
      "name": "allowance",
      "outputs": [
        {
          "internalType": "uint256",
          "name": "",
          "type": "uint256"
        }
      ],
      "stateMutability": "view",
      "type": "function"
    },
    {
      "inputs": [
        {
          "internalType": "address",
          "name": "spender",
          "type": "address"
        },
        {
          "internalType": "uint256",
          "name": "amount",
          "type": "uint256"
        }
      ],
      "name": "approve",
      "outputs": [
        {
          "internalType": "bool",
          "name": "",
          "type": "bool"
        }
      ],
      "stateMutability": "nonpayable",
      "type": "function"
    },
    {
      "inputs": [
        {
          "internalType": "address",
          "name": "",
          "type": "address"
        }
      ],
      "name": "balanceOf",
      "outputs": [
        {
          "internalType": "uint256",
          "name": "",
          "type": "uint256"
        }
      ],
      "stateMutability": "view",
      "type": "function"
    },
    {
      "inputs": [],
      "name": "decimals",
      "outputs": [
        {
          "internalType": "uint8",
          "name": "",
          "type": "uint8"
        }
      ],
      "stateMutability": "pure",
      "type": "function"
    },
    {
      "inputs": [
        {
          "internalType": "uint256",
          "name": "amount",
          "type": "uint256"
        }
      ],
      "name": "deposit",
      "outputs": [],
      "stateMutability": "payable",
      "type": "function"
    },
    {
      "inputs": [],
      "name": "name",
      "outputs": [
        {
          "internalType": "string",
          "name": "",
          "type": "string"
        }
      ],
      "stateMutability": "view",
      "type": "function"
    },
    {
      "inputs": [
        {
          "internalType": "uint256",
          "name": "amount",
          "type": "uint256"
        }
      ],
      "name": "redeem",
      "outputs": [],
      "stateMutability": "payable",
      "type": "function"
    },
    {
      "inputs": [],
      "name": "symbol",
      "outputs": [
        {
          "internalType": "string",
          "name": "",
          "type": "string"
        }
      ],
      "stateMutability": "view",
      "type": "function"
    },
    {
      "inputs": [],
      "name": "totalSupply",
      "outputs": [
        {
          "internalType": "uint256",
          "name": "",
          "type": "uint256"
        }
      ],
      "stateMutability": "view",
      "type": "function"
    },
    {
      "inputs": [
        {
          "internalType": "address",
          "name": "recipient",
          "type": "address"
        },
        {
          "internalType": "uint256",
          "name": "amount",
          "type": "uint256"
        }
      ],
      "name": "transfer",
      "outputs": [
        {
          "internalType": "bool",
          "name": "",
          "type": "bool"
        }
      ],
      "stateMutability": "nonpayable",
      "type": "function"
    },
    {
      "inputs": [
        {
          "internalType": "address",
          "name": "sender",
          "type": "address"
        },
        {
          "internalType": "address",
          "name": "recipient",
          "type": "address"
        },
        {
          "internalType": "uint256",
          "name": "amount",
          "type": "uint256"
        }
      ],
      "name": "transferFrom",
      "outputs": [
        {
          "internalType": "bool",
          "name": "",
          "type": "bool"
        }
      ],
      "stateMutability": "nonpayable",
      "type": "function"
    }
  ],
  "bytecode": "60806040523480156200001157600080fd5b5060405162000da638038062000da68339810160408190526200003491620002d7565b81516200004990600190602085019062000164565b5080516200005f90600290602084019062000164565b50620000753368056bc75e2d631000006200007d565b5050620003a4565b6001600160a01b038216620000d85760405162461bcd60e51b815260206004820152601f60248201527f45524332303a206d696e7420746f20746865207a65726f206164647265737300604482015260640160405180910390fd5b80600080828254620000eb919062000341565b90915550506001600160a01b038216600090815260036020526040812080548392906200011a90849062000341565b90915550506040518181526001600160a01b038316906000907fddf252ad1be2c89b69c2b068fc378daa952ba7f163c4a11628f55a4df523b3ef9060200160405180910390a35050565b828054620001729062000368565b90600052602060002090601f016020900481019282620001965760008555620001e1565b82601f10620001b157805160ff1916838001178555620001e1565b82800160010185558215620001e1579182015b82811115620001e1578251825591602001919060010190620001c4565b50620001ef929150620001f3565b5090565b5b80821115620001ef5760008155600101620001f4565b634e487b7160e01b600052604160045260246000fd5b600082601f8301126200023257600080fd5b81516001600160401b03808211156200024f576200024f6200020a565b604051601f8301601f19908116603f011681019082821181831017156200027a576200027a6200020a565b816040528381526020925086838588010111156200029757600080fd5b600091505b83821015620002bb57858201830151818301840152908201906200029c565b83821115620002cd5760008385830101525b9695505050505050565b60008060408385031215620002eb57600080fd5b82516001600160401b03808211156200030357600080fd5b620003118683870162000220565b935060208501519150808211156200032857600080fd5b50620003378582860162000220565b9150509250929050565b600082198211156200036357634e487b7160e01b600052601160045260246000fd5b500190565b600181811c908216806200037d57607f821691505b6020821081036200039e57634e487b7160e01b600052602260045260246000fd5b50919050565b6109f280620003b46000396000f3fe60806040526004361061009c5760003560e01c806370a082311161006457806370a082311461015c57806395d89b4114610189578063a9059cbb1461019e578063b6b55f25146101be578063db006a75146101d3578063dd62ed3e146101e657600080fd5b806306fdde03146100a1578063095ea7b3146100cc57806318160ddd146100fc57806323b872dd14610120578063313ce56714610140575b600080fd5b3480156100ad57600080fd5b506100b661021e565b6040516100c391906107df565b60405180910390f35b3480156100d857600080fd5b506100ec6100e7366004610850565b6102ac565b60405190151581526020016100c3565b34801561010857600080fd5b5061011260005481565b6040519081526020016100c3565b34801561012c57600080fd5b506100ec61013b36600461087a565b610378565b34801561014c57600080fd5b50604051601281526020016100c3565b34801561016857600080fd5b506101126101773660046108b6565b60036020526000908152604090205481565b34801561019557600080fd5b506100b661047c565b3480156101aa57600080fd5b506100ec6101b9366004610850565b610489565b6101d16101cc3660046108d1565b61049d565b005b6101d16101e13660046108d1565b6104cf565b3480156101f257600080fd5b506101126102013660046108ea565b600460209081526000928352604080842090915290825290205481565b6001805461022b9061091d565b80601f01602080910402602001604051908101604052809291908181526020018280546102579061091d565b80156102a45780601f10610279576101008083540402835291602001916102a4565b820191906000526020600020905b81548152906001019060200180831161028757829003601f168201915b505050505081565b60006001600160a01b0383166103145760405162461bcd60e51b815260206004820152602260248201527f45524332303a20617070726f766520746f20746865207a65726f206164647265604482015261737360f01b60648201526084015b60405180910390fd5b3360008181526004602090815260408083206001600160a01b03881680855290835292819020869055518581529192917f8c5be1e5ebec7d5bd14f71427d1e84f3dd0314c0f7b2291e5b200ac8c7c3b925910160405180910390a350600192915050565b6001600160a01b0383166000908152600460209081526040808320338452909152812054828110156103fd5760405162461bcd60e51b815260206004820152602860248201527f45524332303a207472616e7366657220616d6f756e74206578636565647320616044820152676c6c6f77616e636560c01b606482015260840161030b565b610407838261096d565b6001600160a01b03861660008181526004602090815260408083203380855292529182902093909355517f8c5be1e5ebec7d5bd14f71427d1e84f3dd0314c0f7b2291e5b200ac8c7c3b925906104609087815260200190565b60405180910390a36104738585856104e8565b95945050505050565b6002805461022b9061091d565b60006104963384846104e8565b9392505050565b6104a73382610643565b6040518181523090339060008051602061099d8339815191529060200160405180910390a350565b6104da333383610378565b506104e53382610710565b50565b60006001600160a01b0383166105405760405162461bcd60e51b815260206004820152601f60248201527f45524332303a207472616e7366657220746f207a65726f206164647265737300604482015260640161030b565b826001600160a01b0316846001600160a01b031660008051602061099d8339815191528460405161057391815260200190565b60405180910390a36001600160a01b038416600090815260036020526040902054828110156105f35760405162461bcd60e51b815260206004820152602660248201527f45524332303a207472616e7366657220616d6f756e7420657863656564732062604482015265616c616e636560d01b606482015260840161030b565b6105fd838261096d565b6001600160a01b038087166000908152600360205260408082209390935590861681529081208054859290610633908490610984565b9091555060019695505050505050565b6001600160a01b0382166106995760405162461bcd60e51b815260206004820152601f60248201527f45524332303a206d696e7420746f20746865207a65726f206164647265737300604482015260640161030b565b806000808282546106aa9190610984565b90915550506001600160a01b038216600090815260036020526040812080548392906106d7908490610984565b90915550506040518181526001600160a01b0383169060009060008051602061099d833981519152906020015b60405180910390a35050565b6001600160a01b0382166107705760405162461bcd60e51b815260206004820152602160248201527f45524332303a206275726e2066726f6d20746865207a65726f206164647265736044820152607360f81b606482015260840161030b565b80600080828254610781919061096d565b90915550506001600160a01b038216600090815260036020526040812080548392906107ae90849061096d565b90915550506040518181526000906001600160a01b0384169060008051602061099d83398151915290602001610704565b600060208083528351808285015260005b8181101561080c578581018301518582016040015282016107f0565b8181111561081e576000604083870101525b50601f01601f1916929092016040019392505050565b80356001600160a01b038116811461084b57600080fd5b919050565b6000806040838503121561086357600080fd5b61086c83610834565b946020939093013593505050565b60008060006060848603121561088f57600080fd5b61089884610834565b92506108a660208501610834565b9150604084013590509250925092565b6000602082840312156108c857600080fd5b61049682610834565b6000602082840312156108e357600080fd5b5035919050565b600080604083850312156108fd57600080fd5b61090683610834565b915061091460208401610834565b90509250929050565b600181811c9082168061093157607f821691505b60208210810361095157634e487b7160e01b600052602260045260246000fd5b50919050565b634e487b7160e01b600052601160045260246000fd5b60008282101561097f5761097f610957565b500390565b6000821982111561099757610997610957565b50019056feddf252ad1be2c89b69c2b068fc378daa952ba7f163c4a11628f55a4df523b3efa2646970667358221220e50838a01e55eff6a3443c1e79f02ee1bcafa2211c735f84a15430e746bf49e164736f6c634300080e0033",
  "bytecodeSha1": "5b993d52d116ff11c027c218af95be329f80b4e2",
  "compiler": {
    "evm_version": "istanbul",
    "optimizer": {
      "enabled": true,
      "runs": 200
    },
    "version": "0.8.14+commit.80d49f37"
  },
  "contractName": "ERC20",
  "language": "Solidity",
  "natspec": {
    "kind": "dev",
    "methods": {},
    "version": 1
  },
  "opcodes": "PUSH1 0x80 PUSH1 0x40 MSTORE PUSH1 0x4 CALLDATASIZE LT PUSH2 0x9C JUMPI PUSH1 0x0 CALLDATALOAD PUSH1 0xE0 SHR DUP1 PUSH4 0x70A08231 GT PUSH2 0x64 JUMPI DUP1 PUSH4 0x70A08231 EQ PUSH2 0x15C JUMPI DUP1 PUSH4 0x95D89B41 EQ PUSH2 0x189 JUMPI DUP1 PUSH4 0xA9059CBB EQ PUSH2 0x19E JUMPI DUP1 PUSH4 0xB6B55F25 EQ PUSH2 0x1BE JUMPI DUP1 PUSH4 0xDB006A75 EQ PUSH2 0x1D3 JUMPI DUP1 PUSH4 0xDD62ED3E EQ PUSH2 0x1E6 JUMPI PUSH1 0x0 DUP1 REVERT JUMPDEST DUP1 PUSH4 0x6FDDE03 EQ PUSH2 0xA1 JUMPI DUP1 PUSH4 0x95EA7B3 EQ PUSH2 0xCC JUMPI DUP1 PUSH4 0x18160DDD EQ PUSH2 0xFC JUMPI DUP1 PUSH4 0x23B872DD EQ PUSH2 0x120 JUMPI DUP1 PUSH4 0x313CE567 EQ PUSH2 0x140 JUMPI JUMPDEST PUSH1 0x0 DUP1 REVERT JUMPDEST CALLVALUE DUP1 ISZERO PUSH2 0xAD JUMPI PUSH1 0x0 DUP1 REVERT JUMPDEST POP PUSH2 0xB6 PUSH2 0x21E JUMP JUMPDEST PUSH1 0x40 MLOAD PUSH2 0xC3 SWAP2 SWAP1 PUSH2 0x7DF JUMP JUMPDEST PUSH1 0x40 MLOAD DUP1 SWAP2 SUB SWAP1 RETURN JUMPDEST CALLVALUE DUP1 ISZERO PUSH2 0xD8 JUMPI PUSH1 0x0 DUP1 REVERT JUMPDEST POP PUSH2 0xEC PUSH2 0xE7 CALLDATASIZE PUSH1 0x4 PUSH2 0x850 JUMP JUMPDEST PUSH2 0x2AC JUMP JUMPDEST PUSH1 0x40 MLOAD SWAP1 ISZERO ISZERO DUP2 MSTORE PUSH1 0x20 ADD PUSH2 0xC3 JUMP JUMPDEST CALLVALUE DUP1 ISZERO PUSH2 0x108 JUMPI PUSH1 0x0 DUP1 REVERT JUMPDEST POP PUSH2 0x112 PUSH1 0x0 SLOAD DUP2 JUMP JUMPDEST PUSH1 0x40 MLOAD SWAP1 DUP2 MSTORE PUSH1 0x20 ADD PUSH2 0xC3 JUMP JUMPDEST CALLVALUE DUP1 ISZERO PUSH2 0x12C JUMPI PUSH1 0x0 DUP1 REVERT JUMPDEST POP PUSH2 0xEC PUSH2 0x13B CALLDATASIZE PUSH1 0x4 PUSH2 0x87A JUMP JUMPDEST PUSH2 0x378 JUMP JUMPDEST CALLVALUE DUP1 ISZERO PUSH2 0x14C JUMPI PUSH1 0x0 DUP1 REVERT JUMPDEST POP PUSH1 0x40 MLOAD PUSH1 0x12 DUP2 MSTORE PUSH1 0x20 ADD PUSH2 0xC3 JUMP JUMPDEST CALLVALUE DUP1 ISZERO PUSH2 0x168 JUMPI PUSH1 0x0 DUP1 REVERT JUMPDEST POP PUSH2 0x112 PUSH2 0x177 CALLDATASIZE PUSH1 0x4 PUSH2 0x8B6 JUMP JUMPDEST PUSH1 0x3 PUSH1 0x20 MSTORE PUSH1 0x0 SWAP1 DUP2 MSTORE PUSH1 0x40 SWAP1 KECCAK256 SLOAD DUP2 JUMP JUMPDEST CALLVALUE DUP1 ISZERO PUSH2 0x195 JUMPI PUSH1 0x0 DUP1 REVERT JUMPDEST POP PUSH2 0xB6 PUSH2 0x47C JUMP JUMPDEST CALLVALUE DUP1 ISZERO PUSH2 0x1AA JUMPI PUSH1 0x0 DUP1 REVERT JUMPDEST POP PUSH2 0xEC PUSH2 0x1B9 CALLDATASIZE PUSH1 0x4 PUSH2 0x850 JUMP JUMPDEST PUSH2 0x489 JUMP JUMPDEST PUSH2 0x1D1 PUSH2 0x1CC CALLDATASIZE PUSH1 0x4 PUSH2 0x8D1 JUMP JUMPDEST PUSH2 0x49D JUMP JUMPDEST STOP JUMPDEST PUSH2 0x1D1 PUSH2 0x1E1 CALLDATASIZE PUSH1 0x4 PUSH2 0x8D1 JUMP JUMPDEST PUSH2 0x4CF JUMP JUMPDEST CALLVALUE DUP1 ISZERO PUSH2 0x1F2 JUMPI PUSH1 0x0 DUP1 REVERT JUMPDEST POP PUSH2 0x112 PUSH2 0x201 CALLDATASIZE PUSH1 0x4 PUSH2 0x8EA JUMP JUMPDEST PUSH1 0x4 PUSH1 0x20 SWAP1 DUP2 MSTORE PUSH1 0x0 SWAP3 DUP4 MSTORE PUSH1 0x40 DUP1 DUP5 KECCAK256 SWAP1 SWAP2 MSTORE SWAP1 DUP3 MSTORE SWAP1 KECCAK256 SLOAD DUP2 JUMP JUMPDEST PUSH1 0x1 DUP1 SLOAD PUSH2 0x22B SWAP1 PUSH2 0x91D JUMP JUMPDEST DUP1 PUSH1 0x1F ADD PUSH1 0x20 DUP1 SWAP2 DIV MUL PUSH1 0x20 ADD PUSH1 0x40 MLOAD SWAP1 DUP2 ADD PUSH1 0x40 MSTORE DUP1 SWAP3 SWAP2 SWAP1 DUP2 DUP2 MSTORE PUSH1 0x20 ADD DUP3 DUP1 SLOAD PUSH2 0x257 SWAP1 PUSH2 0x91D JUMP JUMPDEST DUP1 ISZERO PUSH2 0x2A4 JUMPI DUP1 PUSH1 0x1F LT PUSH2 0x279 JUMPI PUSH2 0x100 DUP1 DUP4 SLOAD DIV MUL DUP4 MSTORE SWAP2 PUSH1 0x20 ADD SWAP2 PUSH2 0x2A4 JUMP JUMPDEST DUP3 ADD SWAP2 SWAP1 PUSH1 0x0 MSTORE PUSH1 0x20 PUSH1 0x0 KECCAK256 SWAP1 JUMPDEST DUP2 SLOAD DUP2 MSTORE SWAP1 PUSH1 0x1 ADD SWAP1 PUSH1 0x20 ADD DUP1 DUP4 GT PUSH2 0x287 JUMPI DUP3 SWAP1 SUB PUSH1 0x1F AND DUP3 ADD SWAP2 JUMPDEST POP POP POP POP POP DUP2 JUMP JUMPDEST PUSH1 0x0 PUSH1 0x1 PUSH1 0x1 PUSH1 0xA0 SHL SUB DUP4 AND PUSH2 0x314 JUMPI PUSH1 0x40 MLOAD PUSH3 0x461BCD PUSH1 0xE5 SHL DUP2 MSTORE PUSH1 0x20 PUSH1 0x4 DUP3 ADD MSTORE PUSH1 0x22 PUSH1 0x24 DUP3 ADD MSTORE PUSH32 0x45524332303A20617070726F766520746F20746865207A65726F206164647265 PUSH1 0x44 DUP3 ADD MSTORE PUSH2 0x7373 PUSH1 0xF0 SHL PUSH1 0x64 DUP3 ADD MSTORE PUSH1 0x84 ADD JUMPDEST PUSH1 0x40 MLOAD DUP1 SWAP2 SUB SWAP1 REVERT JUMPDEST CALLER PUSH1 0x0 DUP2 DUP2 MSTORE PUSH1 0x4 PUSH1 0x20 SWAP1 DUP2 MSTORE PUSH1 0x40 DUP1 DUP4 KECCAK256 PUSH1 0x1 PUSH1 0x1 PUSH1 0xA0 SHL SUB DUP9 AND DUP1 DUP6 MSTORE SWAP1 DUP4 MSTORE SWAP3 DUP2 SWAP1 KECCAK256 DUP7 SWAP1 SSTORE MLOAD DUP6 DUP2 MSTORE SWAP2 SWAP3 SWAP2 PUSH32 0x8C5BE1E5EBEC7D5BD14F71427D1E84F3DD0314C0F7B2291E5B200AC8C7C3B925 SWAP2 ADD PUSH1 0x40 MLOAD DUP1 SWAP2 SUB SWAP1 LOG3 POP PUSH1 0x1 SWAP3 SWAP2 POP POP JUMP JUMPDEST PUSH1 0x1 PUSH1 0x1 PUSH1 0xA0 SHL SUB DUP4 AND PUSH1 0x0 SWAP1 DUP2 MSTORE PUSH1 0x4 PUSH1 0x20 SWAP1 DUP2 MSTORE PUSH1 0x40 DUP1 DUP4 KECCAK256 CALLER DUP5 MSTORE SWAP1 SWAP2 MSTORE DUP2 KECCAK256 SLOAD DUP3 DUP2 LT ISZERO PUSH2 0x3FD JUMPI PUSH1 0x40 MLOAD PUSH3 0x461BCD PUSH1 0xE5 SHL DUP2 MSTORE PUSH1 0x20 PUSH1 0x4 DUP3 ADD MSTORE PUSH1 0x28 PUSH1 0x24 DUP3 ADD MSTORE PUSH32 0x45524332303A207472616E7366657220616D6F756E7420657863656564732061 PUSH1 0x44 DUP3 ADD MSTORE PUSH8 0x6C6C6F77616E6365 PUSH1 0xC0 SHL PUSH1 0x64 DUP3 ADD MSTORE PUSH1 0x84 ADD PUSH2 0x30B JUMP JUMPDEST PUSH2 0x407 DUP4 DUP3 PUSH2 0x96D JUMP JUMPDEST PUSH1 0x1 PUSH1 0x1 PUSH1 0xA0 SHL SUB DUP7 AND PUSH1 0x0 DUP2 DUP2 MSTORE PUSH1 0x4 PUSH1 0x20 SWAP1 DUP2 MSTORE PUSH1 0x40 DUP1 DUP4 KECCAK256 CALLER DUP1 DUP6 MSTORE SWAP3 MSTORE SWAP2 DUP3 SWAP1 KECCAK256 SWAP4 SWAP1 SWAP4 SSTORE MLOAD PUSH32 0x8C5BE1E5EBEC7D5BD14F71427D1E84F3DD0314C0F7B2291E5B200AC8C7C3B925 SWAP1 PUSH2 0x460 SWAP1 DUP8 DUP2 MSTORE PUSH1 0x20 ADD SWAP1 JUMP JUMPDEST PUSH1 0x40 MLOAD DUP1 SWAP2 SUB SWAP1 LOG3 PUSH2 0x473 DUP6 DUP6 DUP6 PUSH2 0x4E8 JUMP JUMPDEST SWAP6 SWAP5 POP POP POP POP POP JUMP JUMPDEST PUSH1 0x2 DUP1 SLOAD PUSH2 0x22B SWAP1 PUSH2 0x91D JUMP JUMPDEST PUSH1 0x0 PUSH2 0x496 CALLER DUP5 DUP5 PUSH2 0x4E8 JUMP JUMPDEST SWAP4 SWAP3 POP POP POP JUMP JUMPDEST PUSH2 0x4A7 CALLER DUP3 PUSH2 0x643 JUMP JUMPDEST PUSH1 0x40 MLOAD DUP2 DUP2 MSTORE ADDRESS SWAP1 CALLER SWAP1 PUSH1 0x0 DUP1 MLOAD PUSH1 0x20 PUSH2 0x99D DUP4 CODECOPY DUP2 MLOAD SWAP2 MSTORE SWAP1 PUSH1 0x20 ADD PUSH1 0x40 MLOAD DUP1 SWAP2 SUB SWAP1 LOG3 POP JUMP JUMPDEST PUSH2 0x4DA CALLER CALLER DUP4 PUSH2 0x378 JUMP JUMPDEST POP PUSH2 0x4E5 CALLER DUP3 PUSH2 0x710 JUMP JUMPDEST POP JUMP JUMPDEST PUSH1 0x0 PUSH1 0x1 PUSH1 0x1 PUSH1 0xA0 SHL SUB DUP4 AND PUSH2 0x540 JUMPI PUSH1 0x40 MLOAD PUSH3 0x461BCD PUSH1 0xE5 SHL DUP2 MSTORE PUSH1 0x20 PUSH1 0x4 DUP3 ADD MSTORE PUSH1 0x1F PUSH1 0x24 DUP3 ADD MSTORE PUSH32 0x45524332303A207472616E7366657220746F207A65726F206164647265737300 PUSH1 0x44 DUP3 ADD MSTORE PUSH1 0x64 ADD PUSH2 0x30B JUMP JUMPDEST DUP3 PUSH1 0x1 PUSH1 0x1 PUSH1 0xA0 SHL SUB AND DUP5 PUSH1 0x1 PUSH1 0x1 PUSH1 0xA0 SHL SUB AND PUSH1 0x0 DUP1 MLOAD PUSH1 0x20 PUSH2 0x99D DUP4 CODECOPY DUP2 MLOAD SWAP2 MSTORE DUP5 PUSH1 0x40 MLOAD PUSH2 0x573 SWAP2 DUP2 MSTORE PUSH1 0x20 ADD SWAP1 JUMP JUMPDEST PUSH1 0x40 MLOAD DUP1 SWAP2 SUB SWAP1 LOG3 PUSH1 0x1 PUSH1 0x1 PUSH1 0xA0 SHL SUB DUP5 AND PUSH1 0x0 SWAP1 DUP2 MSTORE PUSH1 0x3 PUSH1 0x20 MSTORE PUSH1 0x40 SWAP1 KECCAK256 SLOAD DUP3 DUP2 LT ISZERO PUSH2 0x5F3 JUMPI PUSH1 0x40 MLOAD PUSH3 0x461BCD PUSH1 0xE5 SHL DUP2 MSTORE PUSH1 0x20 PUSH1 0x4 DUP3 ADD MSTORE PUSH1 0x26 PUSH1 0x24 DUP3 ADD MSTORE PUSH32 0x45524332303A207472616E7366657220616D6F756E7420657863656564732062 PUSH1 0x44 DUP3 ADD MSTORE PUSH6 0x616C616E6365 PUSH1 0xD0 SHL PUSH1 0x64 DUP3 ADD MSTORE PUSH1 0x84 ADD PUSH2 0x30B JUMP JUMPDEST PUSH2 0x5FD DUP4 DUP3 PUSH2 0x96D JUMP JUMPDEST PUSH1 0x1 PUSH1 0x1 PUSH1 0xA0 SHL SUB DUP1 DUP8 AND PUSH1 0x0 SWAP1 DUP2 MSTORE PUSH1 0x3 PUSH1 0x20 MSTORE PUSH1 0x40 DUP1 DUP3 KECCAK256 SWAP4 SWAP1 SWAP4 SSTORE SWAP1 DUP7 AND DUP2 MSTORE SWAP1 DUP2 KECCAK256 DUP1 SLOAD DUP6 SWAP3 SWAP1 PUSH2 0x633 SWAP1 DUP5 SWAP1 PUSH2 0x984 JUMP JUMPDEST SWAP1 SWAP2 SSTORE POP PUSH1 0x1 SWAP7 SWAP6 POP POP POP POP POP POP JUMP JUMPDEST PUSH1 0x1 PUSH1 0x1 PUSH1 0xA0 SHL SUB DUP3 AND PUSH2 0x699 JUMPI PUSH1 0x40 MLOAD PUSH3 0x461BCD PUSH1 0xE5 SHL DUP2 MSTORE PUSH1 0x20 PUSH1 0x4 DUP3 ADD MSTORE PUSH1 0x1F PUSH1 0x24 DUP3 ADD MSTORE PUSH32 0x45524332303A206D696E7420746F20746865207A65726F206164647265737300 PUSH1 0x44 DUP3 ADD MSTORE PUSH1 0x64 ADD PUSH2 0x30B JUMP JUMPDEST DUP1 PUSH1 0x0 DUP1 DUP3 DUP3 SLOAD PUSH2 0x6AA SWAP2 SWAP1 PUSH2 0x984 JUMP JUMPDEST SWAP1 SWAP2 SSTORE POP POP PUSH1 0x1 PUSH1 0x1 PUSH1 0xA0 SHL SUB DUP3 AND PUSH1 0x0 SWAP1 DUP2 MSTORE PUSH1 0x3 PUSH1 0x20 MSTORE PUSH1 0x40 DUP2 KECCAK256 DUP1 SLOAD DUP4 SWAP3 SWAP1 PUSH2 0x6D7 SWAP1 DUP5 SWAP1 PUSH2 0x984 JUMP JUMPDEST SWAP1 SWAP2 SSTORE POP POP PUSH1 0x40 MLOAD DUP2 DUP2 MSTORE PUSH1 0x1 PUSH1 0x1 PUSH1 0xA0 SHL SUB DUP4 AND SWAP1 PUSH1 0x0 SWAP1 PUSH1 0x0 DUP1 MLOAD PUSH1 0x20 PUSH2 0x99D DUP4 CODECOPY DUP2 MLOAD SWAP2 MSTORE SWAP1 PUSH1 0x20 ADD JUMPDEST PUSH1 0x40 MLOAD DUP1 SWAP2 SUB SWAP1 LOG3 POP POP JUMP JUMPDEST PUSH1 0x1 PUSH1 0x1 PUSH1 0xA0 SHL SUB DUP3 AND PUSH2 0x770 JUMPI PUSH1 0x40 MLOAD PUSH3 0x461BCD PUSH1 0xE5 SHL DUP2 MSTORE PUSH1 0x20 PUSH1 0x4 DUP3 ADD MSTORE PUSH1 0x21 PUSH1 0x24 DUP3 ADD MSTORE PUSH32 0x45524332303A206275726E2066726F6D20746865207A65726F20616464726573 PUSH1 0x44 DUP3 ADD MSTORE PUSH1 0x73 PUSH1 0xF8 SHL PUSH1 0x64 DUP3 ADD MSTORE PUSH1 0x84 ADD PUSH2 0x30B JUMP JUMPDEST DUP1 PUSH1 0x0 DUP1 DUP3 DUP3 SLOAD PUSH2 0x781 SWAP2 SWAP1 PUSH2 0x96D JUMP JUMPDEST SWAP1 SWAP2 SSTORE POP POP PUSH1 0x1 PUSH1 0x1 PUSH1 0xA0 SHL SUB DUP3 AND PUSH1 0x0 SWAP1 DUP2 MSTORE PUSH1 0x3 PUSH1 0x20 MSTORE PUSH1 0x40 DUP2 KECCAK256 DUP1 SLOAD DUP4 SWAP3 SWAP1 PUSH2 0x7AE SWAP1 DUP5 SWAP1 PUSH2 0x96D JUMP JUMPDEST SWAP1 SWAP2 SSTORE POP POP PUSH1 0x40 MLOAD DUP2 DUP2 MSTORE PUSH1 0x0 SWAP1 PUSH1 0x1 PUSH1 0x1 PUSH1 0xA0 SHL SUB DUP5 AND SWAP1 PUSH1 0x0 DUP1 MLOAD PUSH1 0x20 PUSH2 0x99D DUP4 CODECOPY DUP2 MLOAD SWAP2 MSTORE SWAP1 PUSH1 0x20 ADD PUSH2 0x704 JUMP JUMPDEST PUSH1 0x0 PUSH1 0x20 DUP1 DUP4 MSTORE DUP4 MLOAD DUP1 DUP3 DUP6 ADD MSTORE PUSH1 0x0 JUMPDEST DUP2 DUP2 LT ISZERO PUSH2 0x80C JUMPI DUP6 DUP2 ADD DUP4 ADD MLOAD DUP6 DUP3 ADD PUSH1 0x40 ADD MSTORE DUP3 ADD PUSH2 0x7F0 JUMP JUMPDEST DUP2 DUP2 GT ISZERO PUSH2 0x81E JUMPI PUSH1 0x0 PUSH1 0x40 DUP4 DUP8 ADD ADD MSTORE JUMPDEST POP PUSH1 0x1F ADD PUSH1 0x1F NOT AND SWAP3 SWAP1 SWAP3 ADD PUSH1 0x40 ADD SWAP4 SWAP3 POP POP POP JUMP JUMPDEST DUP1 CALLDATALOAD PUSH1 0x1 PUSH1 0x1 PUSH1 0xA0 SHL SUB DUP2 AND DUP2 EQ PUSH2 0x84B JUMPI PUSH1 0x0 DUP1 REVERT JUMPDEST SWAP2 SWAP1 POP JUMP JUMPDEST PUSH1 0x0 DUP1 PUSH1 0x40 DUP4 DUP6 SUB SLT ISZERO PUSH2 0x863 JUMPI PUSH1 0x0 DUP1 REVERT JUMPDEST PUSH2 0x86C DUP4 PUSH2 0x834 JUMP JUMPDEST SWAP5 PUSH1 0x20 SWAP4 SWAP1 SWAP4 ADD CALLDATALOAD SWAP4 POP POP POP JUMP JUMPDEST PUSH1 0x0 DUP1 PUSH1 0x0 PUSH1 0x60 DUP5 DUP7 SUB SLT ISZERO PUSH2 0x88F JUMPI PUSH1 0x0 DUP1 REVERT JUMPDEST PUSH2 0x898 DUP5 PUSH2 0x834 JUMP JUMPDEST SWAP3 POP PUSH2 0x8A6 PUSH1 0x20 DUP6 ADD PUSH2 0x834 JUMP JUMPDEST SWAP2 POP PUSH1 0x40 DUP5 ADD CALLDATALOAD SWAP1 POP SWAP3 POP SWAP3 POP SWAP3 JUMP JUMPDEST PUSH1 0x0 PUSH1 0x20 DUP3 DUP5 SUB SLT ISZERO PUSH2 0x8C8 JUMPI PUSH1 0x0 DUP1 REVERT JUMPDEST PUSH2 0x496 DUP3 PUSH2 0x834 JUMP JUMPDEST PUSH1 0x0 PUSH1 0x20 DUP3 DUP5 SUB SLT ISZERO PUSH2 0x8E3 JUMPI PUSH1 0x0 DUP1 REVERT JUMPDEST POP CALLDATALOAD SWAP2 SWAP1 POP JUMP JUMPDEST PUSH1 0x0 DUP1 PUSH1 0x40 DUP4 DUP6 SUB SLT ISZERO PUSH2 0x8FD JUMPI PUSH1 0x0 DUP1 REVERT JUMPDEST PUSH2 0x906 DUP4 PUSH2 0x834 JUMP JUMPDEST SWAP2 POP PUSH2 0x914 PUSH1 0x20 DUP5 ADD PUSH2 0x834 JUMP JUMPDEST SWAP1 POP SWAP3 POP SWAP3 SWAP1 POP JUMP JUMPDEST PUSH1 0x1 DUP2 DUP2 SHR SWAP1 DUP3 AND DUP1 PUSH2 0x931 JUMPI PUSH1 0x7F DUP3 AND SWAP2 POP JUMPDEST PUSH1 0x20 DUP3 LT DUP2 SUB PUSH2 0x951 JUMPI PUSH4 0x4E487B71 PUSH1 0xE0 SHL PUSH1 0x0 MSTORE PUSH1 0x22 PUSH1 0x4 MSTORE PUSH1 0x24 PUSH1 0x0 REVERT JUMPDEST POP SWAP2 SWAP1 POP JUMP JUMPDEST PUSH4 0x4E487B71 PUSH1 0xE0 SHL PUSH1 0x0 MSTORE PUSH1 0x11 PUSH1 0x4 MSTORE PUSH1 0x24 PUSH1 0x0 REVERT JUMPDEST PUSH1 0x0 DUP3 DUP3 LT ISZERO PUSH2 0x97F JUMPI PUSH2 0x97F PUSH2 0x957 JUMP JUMPDEST POP SUB SWAP1 JUMP JUMPDEST PUSH1 0x0 DUP3 NOT DUP3 GT ISZERO PUSH2 0x997 JUMPI PUSH2 0x997 PUSH2 0x957 JUMP JUMPDEST POP ADD SWAP1 JUMP INVALID 0xDD CALLCODE MSTORE 0xAD SHL 0xE2 0xC8 SWAP12 PUSH10 0xC2B068FC378DAA952BA7 CALL PUSH4 0xC4A11628 CREATE2 GAS 0x4D CREATE2 0x23 0xB3 0xEF LOG2 PUSH5 0x6970667358 0x22 SLT KECCAK256 0xE5 ADDMOD CODESIZE LOG0 0x1E SSTORE 0xEF 0xF6 LOG3 DIFFICULTY EXTCODECOPY 0x1E PUSH26 0xF02EE1BCAFA2211C735F84A15430E746BF49E164736F6C634300 ADDMOD 0xE STOP CALLER ",
  "sha1": "cb59e8e852e01c97abe5dccb74e788d16b088dad",
  "source": "//SPDX-License-Identifier: MIT\npragma solidity >=0.6.0 <0.9.0;\n\ncontract ERC20 {\n    uint256 public totalSupply;\n    string public name;\n    string public symbol;\n\n    event Transfer(address indexed _from, address indexed _to, uint256 value);\n    event Approval(\n        address indexed owner,\n        address indexed spender,\n        uint256 value\n    );\n\n    mapping(address => uint256) public balanceOf;\n    mapping(address => mapping(address => uint256)) public allowance;\n\n    constructor(string memory _name, string memory _symbol) {\n        name = _name;\n        symbol = _symbol;\n\n        _mint(msg.sender, 100e18);\n    }\n\n    function decimals() external pure returns (uint8) {\n        return 18;\n    }\n\n    function transfer(address recipient, uint256 amount)\n        external\n        returns (bool)\n    {\n        return _transfer(msg.sender, recipient, amount);\n    }\n\n    function transferFrom(\n        address sender,\n        address recipient,\n        uint256 amount\n    ) public returns (bool) {\n        uint256 currentAllowance = allowance[sender][msg.sender];\n\n        require(\n            currentAllowance >= amount,\n            \"ERC20: transfer amount exceeds allowance\"\n        );\n\n        allowance[sender][msg.sender] = currentAllowance - amount;\n\n        emit Approval(sender, msg.sender, amount);\n\n        return _transfer(sender, recipient, amount);\n    }\n\n    function approve(address spender, uint256 amount) external returns (bool) {\n        require(spender != address(0), \"ERC20: approve to the zero address\");\n\n        allowance[msg.sender][spender] = amount;\n\n        emit Approval(msg.sender, spender, amount);\n        return true;\n    }\n\n    function _transfer(\n        address sender,\n        address recipient,\n        uint256 amount\n    ) private returns (bool) {\n        require(recipient != address(0), \"ERC20: transfer to zero address\");\n        emit Transfer(sender, recipient, amount);\n\n        uint256 senderBalance = balanceOf[sender];\n\n        require(\n            senderBalance >= amount,\n            \"ERC20: transfer amount exceeds balance\"\n        );\n\n        balanceOf[sender] = senderBalance - amount;\n        balanceOf[recipient] += amount;\n\n        return true;\n    }\n\n    function _mint(address to, uint256 amount) internal {\n        require(to != address(0), \"ERC20: mint to the zero address\");\n\n        totalSupply += amount;\n        balanceOf[to] += amount;\n\n        emit Transfer(address(0), to, amount);\n    }\n\n    function _burn(address burner, uint256 amount) internal {\n        require(burner != address(0), \"ERC20: burn from the zero address\");\n\n        totalSupply -= amount;\n        balanceOf[burner] -= amount;\n        emit Transfer(burner, address(0), amount);\n    }\n\n    function deposit(uint256 amount) public payable {\n        _mint(msg.sender, amount);\n        emit Transfer(msg.sender, address(this), amount);\n    }\n\n    function redeem(uint256 amount) external payable {\n        transferFrom(msg.sender, msg.sender, amount);\n        _burn(msg.sender, amount);\n    }\n}\n",
  "sourcePath": "contracts/ERC20.sol",
  "type": "contract"
}