{"abi":[{"inputs":[],"stateMutability":"nonpayable","type":"constructor","name":"constructor"},{"inputs":[{"internalType":"address","name":"","type":"address"}],"name":"addressToAmountFunded","outputs":[{"internalType":"uint256","name":"","type":"uint256"}],"stateMutability":"view","type":"function"},{"inputs":[],"name":"fund","outputs":[],"stateMutability":"payable","type":"function"},{"inputs":[{"internalType":"uint256","name":"","type":"uint256"}],"name":"funders","outputs":[{"internalType":"address","name":"","type":"address"}],"stateMutability":"view","type":"function"},{"inputs":[{"internalType":"uint256","name":"ethAmount","type":"uint256"}],"name":"getConversionRate","outputs":[{"internalType":"uint256","name":"","type":"uint256"}],"stateMutability":"view","type":"function"},{"inputs":[],"name":"getPrice","outputs":[{"internalType":"uint256","name":"","type":"uint256"}],"stateMutability":"view","type":"function"},{"inputs":[],"name":"getVersion","outputs":[{"internalType":"uint256","name":"","type":"uint256"}],"stateMutability":"view","type":"function"},{"inputs":[],"name":"owner","outputs":[{"internalType":"address","name":"","type":"address"}],"stateMutability":"view","type":"function"},{"inputs":[],"name":"withdraw","outputs":[],"stateMutability":"payable","type":"function"}],"bytecode":"608060405234801561001057600080fd5b50600280546001600160a01b0319163317905561070f806100326000396000f3fe60806040526004361061007b5760003560e01c80638da5cb5b1161004e5780638da5cb5b146100ff57806398d5fdca14610137578063b60d42881461014c578063dc0d3dff1461015457600080fd5b80630d8e6e2c146100805780633ccfd60b146100a85780633e47d6f3146100b25780636e5b6b28146100df575b600080fd5b34801561008c57600080fd5b50610095610174565b6040519081526020015b60405180910390f35b6100b06101f6565b005b3480156100be57600080fd5b506100956100cd3660046104ec565b60006020819052908152604090205481565b3480156100eb57600080fd5b506100956100fa366004610515565b6102b1565b34801561010b57600080fd5b5060025461011f906001600160a01b031681565b6040516001600160a01b03909116815260200161009f565b34801561014357600080fd5b506100956102df565b6100b061037b565b34801561016057600080fd5b5061011f61016f366004610515565b610448565b600080738a753747a1fa494ec906ce90e9f37563a8af630e9050806001600160a01b03166354fd4d506040518163ffffffff1660e01b8152600401602060405180830381865afa1580156101cc573d6000803e3d6000fd5b505050506040513d601f19601f820116820180604052508101906101f0919061052e565b91505090565b6002546001600160a01b0316331461020d57600080fd5b60405133904780156108fc02916000818181858888f19350505050158015610239573d6000803e3d6000fd5b5060005b6001548110156102905760006001828154811061025c5761025c610547565b60009182526020808320909101546001600160a01b031682528190526040812055508061028881610573565b91505061023d565b5060408051600081526020810191829052516102ae91600191610472565b50565b6000806102bc6102df565b90506402540be4006102ce848361058c565b6102d891906105ab565b9392505050565b600080738a753747a1fa494ec906ce90e9f37563a8af630e90506000816001600160a01b031663feaf968c6040518163ffffffff1660e01b815260040160a060405180830381865afa158015610339573d6000803e3d6000fd5b505050506040513d601f19601f8201168201806040525081019061035d91906105ec565b505050915050806402540be400610374919061063c565b9250505090565b6706f05b59d3b200008061038e346102b1565b10156103e05760405162461bcd60e51b815260206004820152601b60248201527f446f6e6174696f6e20616d6f756e7420746f6f206c6f77202e2e2e0000000000604482015260640160405180910390fd5b33600090815260208190526040812080543492906103ff9084906106c1565b90915550506001805480820182556000919091527fb10e2d527612073b26eecdfd717e6a320cf44b4afac2b0732d9fcbe2b7fa0cf60180546001600160a01b0319163317905550565b6001818154811061045857600080fd5b6000918252602090912001546001600160a01b0316905081565b8280548282559060005260206000209081019282156104c7579160200282015b828111156104c757825182546001600160a01b0319166001600160a01b03909116178255602090920191600190910190610492565b506104d39291506104d7565b5090565b5b808211156104d357600081556001016104d8565b6000602082840312156104fe57600080fd5b81356001600160a01b03811681146102d857600080fd5b60006020828403121561052757600080fd5b5035919050565b60006020828403121561054057600080fd5b5051919050565b634e487b7160e01b600052603260045260246000fd5b634e487b7160e01b600052601160045260246000fd5b6000600182016105855761058561055d565b5060010190565b60008160001904831182151516156105a6576105a661055d565b500290565b6000826105c857634e487b7160e01b600052601260045260246000fd5b500490565b805169ffffffffffffffffffff811681146105e757600080fd5b919050565b600080600080600060a0868803121561060457600080fd5b61060d866105cd565b9450602086015193506040860151925060608601519150610630608087016105cd565b90509295509295909350565b60006001600160ff1b03818413828413808216868404861116156106625761066261055d565b600160ff1b60008712828116878305891216156106815761068161055d565b6000871292508782058712848416161561069d5761069d61055d565b878505871281841616156106b3576106b361055d565b505050929093029392505050565b600082198211156106d4576106d461055d565b50019056fea26469706673582212206b14836d81ff6b5e330dccf5e287376655eeebce75ef41a95a388c2a0d0a94af64736f6c634300080e0033","bytecodeSha1":"7b143ea555682298a3d68f5bde461b20aa9a5655","compiler":{"evm_version":"istanbul","optimizer":{"enabled":true,"runs":200},"version":"0.8.14+commit.80d49f37"},"contractName":"FundMe","language":"Solidity","natspec":{"kind":"dev","methods":{},"version":1},"opcodes":"PUSH1 0x80 PUSH1 0x40 MSTORE PUSH1 0x4 CALLDATASIZE LT PUSH2 0x7B JUMPI PUSH1 0x0 CALLDATALOAD PUSH1 0xE0 SHR DUP1 PUSH4 0x8DA5CB5B GT PUSH2 0x4E JUMPI DUP1 PUSH4 0x8DA5CB5B EQ PUSH2 0xFF JUMPI DUP1 PUSH4 0x98D5FDCA EQ PUSH2 0x137 JUMPI DUP1 PUSH4 0xB60D4288 EQ PUSH2 0x14C JUMPI DUP1 PUSH4 0xDC0D3DFF EQ PUSH2 0x154 JUMPI PUSH1 0x0 DUP1 REVERT JUMPDEST DUP1 PUSH4 0xD8E6E2C EQ PUSH2 0x80 JUMPI DUP1 PUSH4 0x3CCFD60B EQ PUSH2 0xA8 JUMPI DUP1 PUSH4 0x3E47D6F3 EQ PUSH2 0xB2 JUMPI DUP1 PUSH4 0x6E5B6B28 EQ PUSH2 0xDF JUMPI JUMPDEST PUSH1 0x0 DUP1 REVERT JUMPDEST CALLVALUE DUP1 ISZERO PUSH2 0x8C JUMPI PUSH1 0x0 DUP1 REVERT JUMPDEST POP PUSH2 0x95 PUSH2 0x174 JUMP JUMPDEST PUSH1 0x40 MLOAD SWAP1 DUP2 MSTORE PUSH1 0x20 ADD JUMPDEST PUSH1 0x40 MLOAD DUP1 SWAP2 SUB SWAP1 RETURN JUMPDEST PUSH2 0xB0 PUSH2 0x1F6 JUMP JUMPDEST STOP JUMPDEST CALLVALUE DUP1 ISZERO PUSH2 0xBE JUMPI PUSH1 0x0 DUP1 REVERT JUMPDEST POP PUSH2 0x95 PUSH2 0xCD CALLDATASIZE PUSH1 0x4 PUSH2 0x4EC JUMP JUMPDEST PUSH1 0x0 PUSH1 0x20 DUP2 SWAP1 MSTORE SWAP1 DUP2 MSTORE PUSH1 0x40 SWAP1 KECCAK256 SLOAD DUP2 JUMP JUMPDEST CALLVALUE DUP1 ISZERO PUSH2 0xEB JUMPI PUSH1 0x0 DUP1 REVERT JUMPDEST POP PUSH2 0x95 PUSH2 0xFA CALLDATASIZE PUSH1 0x4 PUSH2 0x515 JUMP JUMPDEST PUSH2 0x2B1 JUMP JUMPDEST CALLVALUE DUP1 ISZERO PUSH2 0x10B JUMPI PUSH1 0x0 DUP1 REVERT JUMPDEST POP PUSH1 0x2 SLOAD PUSH2 0x11F SWAP1 PUSH1 0x1 PUSH1 0x1 PUSH1 0xA0 SHL SUB AND DUP2 JUMP JUMPDEST PUSH1 0x40 MLOAD PUSH1 0x1 PUSH1 0x1 PUSH1 0xA0 SHL SUB SWAP1 SWAP2 AND DUP2 MSTORE PUSH1 0x20 ADD PUSH2 0x9F JUMP JUMPDEST CALLVALUE DUP1 ISZERO PUSH2 0x143 JUMPI PUSH1 0x0 DUP1 REVERT JUMPDEST POP PUSH2 0x95 PUSH2 0x2DF JUMP JUMPDEST PUSH2 0xB0 PUSH2 0x37B JUMP JUMPDEST CALLVALUE DUP1 ISZERO PUSH2 0x160 JUMPI PUSH1 0x0 DUP1 REVERT JUMPDEST POP PUSH2 0x11F PUSH2 0x16F CALLDATASIZE PUSH1 0x4 PUSH2 0x515 JUMP JUMPDEST PUSH2 0x448 JUMP JUMPDEST PUSH1 0x0 DUP1 PUSH20 0x8A753747A1FA494EC906CE90E9F37563A8AF630E SWAP1 POP DUP1 PUSH1 0x1 PUSH1 0x1 PUSH1 0xA0 SHL SUB AND PUSH4 0x54FD4D50 PUSH1 0x40 MLOAD DUP2 PUSH4 0xFFFFFFFF AND PUSH1 0xE0 SHL DUP2 MSTORE PUSH1 0x4 ADD PUSH1 0x20 PUSH1 0x40 MLOAD DUP1 DUP4 SUB DUP2 DUP7 GAS STATICCALL ISZERO DUP1 ISZERO PUSH2 0x1CC JUMPI RETURNDATASIZE PUSH1 0x0 DUP1 RETURNDATACOPY RETURNDATASIZE PUSH1 0x0 REVERT JUMPDEST POP POP POP POP PUSH1 0x40 MLOAD RETURNDATASIZE PUSH1 0x1F NOT PUSH1 0x1F DUP3 ADD AND DUP3 ADD DUP1 PUSH1 0x40 MSTORE POP DUP2 ADD SWAP1 PUSH2 0x1F0 SWAP2 SWAP1 PUSH2 0x52E JUMP JUMPDEST SWAP2 POP POP SWAP1 JUMP JUMPDEST PUSH1 0x2 SLOAD PUSH1 0x1 PUSH1 0x1 PUSH1 0xA0 SHL SUB AND CALLER EQ PUSH2 0x20D JUMPI PUSH1 0x0 DUP1 REVERT JUMPDEST PUSH1 0x40 MLOAD CALLER SWAP1 SELFBALANCE DUP1 ISZERO PUSH2 0x8FC MUL SWAP2 PUSH1 0x0 DUP2 DUP2 DUP2 DUP6 DUP9 DUP9 CALL SWAP4 POP POP POP POP ISZERO DUP1 ISZERO PUSH2 0x239 JUMPI RETURNDATASIZE PUSH1 0x0 DUP1 RETURNDATACOPY RETURNDATASIZE PUSH1 0x0 REVERT JUMPDEST POP PUSH1 0x0 JUMPDEST PUSH1 0x1 SLOAD DUP2 LT ISZERO PUSH2 0x290 JUMPI PUSH1 0x0 PUSH1 0x1 DUP3 DUP2 SLOAD DUP2 LT PUSH2 0x25C JUMPI PUSH2 0x25C PUSH2 0x547 JUMP JUMPDEST PUSH1 0x0 SWAP2 DUP3 MSTORE PUSH1 0x20 DUP1 DUP4 KECCAK256 SWAP1 SWAP2 ADD SLOAD PUSH1 0x1 PUSH1 0x1 PUSH1 0xA0 SHL SUB AND DUP3 MSTORE DUP2 SWAP1 MSTORE PUSH1 0x40 DUP2 KECCAK256 SSTORE POP DUP1 PUSH2 0x288 DUP2 PUSH2 0x573 JUMP JUMPDEST SWAP2 POP POP PUSH2 0x23D JUMP JUMPDEST POP PUSH1 0x40 DUP1 MLOAD PUSH1 0x0 DUP2 MSTORE PUSH1 0x20 DUP2 ADD SWAP2 DUP3 SWAP1 MSTORE MLOAD PUSH2 0x2AE SWAP2 PUSH1 0x1 SWAP2 PUSH2 0x472 JUMP JUMPDEST POP JUMP JUMPDEST PUSH1 0x0 DUP1 PUSH2 0x2BC PUSH2 0x2DF JUMP JUMPDEST SWAP1 POP PUSH5 0x2540BE400 PUSH2 0x2CE DUP5 DUP4 PUSH2 0x58C JUMP JUMPDEST PUSH2 0x2D8 SWAP2 SWAP1 PUSH2 0x5AB JUMP JUMPDEST SWAP4 SWAP3 POP POP POP JUMP JUMPDEST PUSH1 0x0 DUP1 PUSH20 0x8A753747A1FA494EC906CE90E9F37563A8AF630E SWAP1 POP PUSH1 0x0 DUP2 PUSH1 0x1 PUSH1 0x1 PUSH1 0xA0 SHL SUB AND PUSH4 0xFEAF968C PUSH1 0x40 MLOAD DUP2 PUSH4 0xFFFFFFFF AND PUSH1 0xE0 SHL DUP2 MSTORE PUSH1 0x4 ADD PUSH1 0xA0 PUSH1 0x40 MLOAD DUP1 DUP4 SUB DUP2 DUP7 GAS STATICCALL ISZERO DUP1 ISZERO PUSH2 0x339 JUMPI RETURNDATASIZE PUSH1 0x0 DUP1 RETURNDATACOPY RETURNDATASIZE PUSH1 0x0 REVERT JUMPDEST POP POP POP POP PUSH1 0x40 MLOAD RETURNDATASIZE PUSH1 0x1F NOT PUSH1 0x1F DUP3 ADD AND DUP3 ADD DUP1 PUSH1 0x40 MSTORE POP DUP2 ADD SWAP1 PUSH2 0x35D SWAP2 SWAP1 PUSH2 0x5EC JUMP JUMPDEST POP POP POP SWAP2 POP POP DUP1 PUSH5 0x2540BE400 PUSH2 0x374 SWAP2 SWAP1 PUSH2 0x63C JUMP JUMPDEST SWAP3 POP POP POP SWAP1 JUMP JUMPDEST PUSH8 0x6F05B59D3B20000 DUP1 PUSH2 0x38E CALLVALUE PUSH2 0x2B1 JUMP JUMPDEST LT ISZERO PUSH2 0x3E0 JUMPI PUSH1 0x40 MLOAD PUSH3 0x461BCD PUSH1 0xE5 SHL DUP2 MSTORE PUSH1 0x20 PUSH1 0x4 DUP3 ADD MSTORE PUSH1 0x1B PUSH1 0x24 DUP3 ADD MSTORE PUSH32 0x446F6E6174696F6E20616D6F756E7420746F6F206C6F77202E2E2E0000000000 PUSH1 0x44 DUP3 ADD MSTORE PUSH1 0x64 ADD PUSH1 0x40 MLOAD DUP1 SWAP2 SUB SWAP1 REVERT JUMPDEST CALLER PUSH1 0x0 SWAP1 DUP2 MSTORE PUSH1 0x20 DUP2 SWAP1 MSTORE PUSH1 0x40 DUP2 KECCAK256 DUP1 SLOAD CALLVALUE SWAP3 SWAP1 PUSH2 0x3FF SWAP1 DUP5 SWAP1 PUSH2 0x6C1 JUMP JUMPDEST SWAP1 SWAP2 SSTORE POP POP PUSH1 0x1 DUP1 SLOAD DUP1 DUP3 ADD DUP3 SSTORE PUSH1 0x0 SWAP2 SWAP1 SWAP2 MSTORE PUSH32 0xB10E2D527612073B26EECDFD717E6A320CF44B4AFAC2B0732D9FCBE2B7FA0CF6 ADD DUP1 SLOAD PUSH1 0x1 PUSH1 0x1 PUSH1 0xA0 SHL SUB NOT AND CALLER OR SWAP1 SSTORE POP JUMP JUMPDEST PUSH1 0x1 DUP2 DUP2 SLOAD DUP2 LT PUSH2 0x458 JUMPI PUSH1 0x0 DUP1 REVERT JUMPDEST PUSH1 0x0 SWAP2 DUP3 MSTORE PUSH1 0x20 SWAP1 SWAP2 KECCAK256 ADD SLOAD PUSH1 0x1 PUSH1 0x1 PUSH1 0xA0 SHL SUB AND SWAP1 POP DUP2 JUMP JUMPDEST DUP3 DUP1 SLOAD DUP3 DUP3 SSTORE SWAP1 PUSH1 0x0 MSTORE PUSH1 0x20 PUSH1 0x0 KECCAK256 SWAP1 DUP2 ADD SWAP3 DUP3 ISZERO PUSH2 0x4C7 JUMPI SWAP2 PUSH1 0x20 MUL DUP3 ADD JUMPDEST DUP3 DUP2 GT ISZERO PUSH2 0x4C7 JUMPI DUP3 MLOAD DUP3 SLOAD PUSH1 0x1 PUSH1 0x1 PUSH1 0xA0 SHL SUB NOT AND PUSH1 0x1 PUSH1 0x1 PUSH1 0xA0 SHL SUB SWAP1 SWAP2 AND OR DUP3 SSTORE PUSH1 0x20 SWAP1 SWAP3 ADD SWAP2 PUSH1 0x1 SWAP1 SWAP2 ADD SWAP1 PUSH2 0x492 JUMP JUMPDEST POP PUSH2 0x4D3 SWAP3 SWAP2 POP PUSH2 0x4D7 JUMP JUMPDEST POP SWAP1 JUMP JUMPDEST JUMPDEST DUP1 DUP3 GT ISZERO PUSH2 0x4D3 JUMPI PUSH1 0x0 DUP2 SSTORE PUSH1 0x1 ADD PUSH2 0x4D8 JUMP JUMPDEST PUSH1 0x0 PUSH1 0x20 DUP3 DUP5 SUB SLT ISZERO PUSH2 0x4FE JUMPI PUSH1 0x0 DUP1 REVERT JUMPDEST DUP2 CALLDATALOAD PUSH1 0x1 PUSH1 0x1 PUSH1 0xA0 SHL SUB DUP2 AND DUP2 EQ PUSH2 0x2D8 JUMPI PUSH1 0x0 DUP1 REVERT JUMPDEST PUSH1 0x0 PUSH1 0x20 DUP3 DUP5 SUB SLT ISZERO PUSH2 0x527 JUMPI PUSH1 0x0 DUP1 REVERT JUMPDEST POP CALLDATALOAD SWAP2 SWAP1 POP JUMP JUMPDEST PUSH1 0x0 PUSH1 0x20 DUP3 DUP5 SUB SLT ISZERO PUSH2 0x540 JUMPI PUSH1 0x0 DUP1 REVERT JUMPDEST POP MLOAD SWAP2 SWAP1 POP JUMP JUMPDEST PUSH4 0x4E487B71 PUSH1 0xE0 SHL PUSH1 0x0 MSTORE PUSH1 0x32 PUSH1 0x4 MSTORE PUSH1 0x24 PUSH1 0x0 REVERT JUMPDEST PUSH4 0x4E487B71 PUSH1 0xE0 SHL PUSH1 0x0 MSTORE PUSH1 0x11 PUSH1 0x4 MSTORE PUSH1 0x24 PUSH1 0x0 REVERT JUMPDEST PUSH1 0x0 PUSH1 0x1 DUP3 ADD PUSH2 0x585 JUMPI PUSH2 0x585 PUSH2 0x55D JUMP JUMPDEST POP PUSH1 0x1 ADD SWAP1 JUMP JUMPDEST PUSH1 0x0 DUP2 PUSH1 0x0 NOT DIV DUP4 GT DUP3 ISZERO ISZERO AND ISZERO PUSH2 0x5A6 JUMPI PUSH2 0x5A6 PUSH2 0x55D JUMP JUMPDEST POP MUL SWAP1 JUMP JUMPDEST PUSH1 0x0 DUP3 PUSH2 0x5C8 JUMPI PUSH4 0x4E487B71 PUSH1 0xE0 SHL PUSH1 0x0 MSTORE PUSH1 0x12 PUSH1 0x4 MSTORE PUSH1 0x24 PUSH1 0x0 REVERT JUMPDEST POP DIV SWAP1 JUMP JUMPDEST DUP1 MLOAD PUSH10 0xFFFFFFFFFFFFFFFFFFFF DUP2 AND DUP2 EQ PUSH2 0x5E7 JUMPI PUSH1 0x0 DUP1 REVERT JUMPDEST SWAP2 SWAP1 POP JUMP JUMPDEST PUSH1 0x0 DUP1 PUSH1 0x0 DUP1 PUSH1 0x0 PUSH1 0xA0 DUP7 DUP9 SUB SLT ISZERO PUSH2 0x604 JUMPI PUSH1 0x0 DUP1 REVERT JUMPDEST PUSH2 0x60D DUP7 PUSH2 0x5CD JUMP JUMPDEST SWAP5 POP PUSH1 0x20 DUP7 ADD MLOAD SWAP4 POP PUSH1 0x40 DUP7 ADD MLOAD SWAP3 POP PUSH1 0x60 DUP7 ADD MLOAD SWAP2 POP PUSH2 0x630 PUSH1 0x80 DUP8 ADD PUSH2 0x5CD JUMP JUMPDEST SWAP1 POP SWAP3 SWAP6 POP SWAP3 SWAP6 SWAP1 SWAP4 POP JUMP JUMPDEST PUSH1 0x0 PUSH1 0x1 PUSH1 0x1 PUSH1 0xFF SHL SUB DUP2 DUP5 SGT DUP3 DUP5 SGT DUP1 DUP3 AND DUP7 DUP5 DIV DUP7 GT AND ISZERO PUSH2 0x662 JUMPI PUSH2 0x662 PUSH2 0x55D JUMP JUMPDEST PUSH1 0x1 PUSH1 0xFF SHL PUSH1 0x0 DUP8 SLT DUP3 DUP2 AND DUP8 DUP4 SDIV DUP10 SLT AND ISZERO PUSH2 0x681 JUMPI PUSH2 0x681 PUSH2 0x55D JUMP JUMPDEST PUSH1 0x0 DUP8 SLT SWAP3 POP DUP8 DUP3 SDIV DUP8 SLT DUP5 DUP5 AND AND ISZERO PUSH2 0x69D JUMPI PUSH2 0x69D PUSH2 0x55D JUMP JUMPDEST DUP8 DUP6 SDIV DUP8 SLT DUP2 DUP5 AND AND ISZERO PUSH2 0x6B3 JUMPI PUSH2 0x6B3 PUSH2 0x55D JUMP JUMPDEST POP POP POP SWAP3 SWAP1 SWAP4 MUL SWAP4 SWAP3 POP POP POP JUMP JUMPDEST PUSH1 0x0 DUP3 NOT DUP3 GT ISZERO PUSH2 0x6D4 JUMPI PUSH2 0x6D4 PUSH2 0x55D JUMP JUMPDEST POP ADD SWAP1 JUMP INVALID LOG2 PUSH5 0x6970667358 0x22 SLT KECCAK256 PUSH12 0x14836D81FF6B5E330DCCF5E2 DUP8 CALLDATACOPY PUSH7 0x55EEEBCE75EF41 0xA9 GAS CODESIZE DUP13 0x2A 0xD EXP SWAP5 0xAF PUSH5 0x736F6C6343 STOP ADDMOD 0xE STOP CALLER ","sha1":"00deabc91db9c21ffb67e0331919450628735d74","source":"//SPDX-License-Identifier: MIT\n\npragma solidity >=0.6.0 <0.9.0;\n\nimport \"@chainlink/contracts/src/v0.8/interfaces/AggregatorV3Interface.sol\";\n\nimport \"@openzeppelin/contracts/utils/math/SafeMath.sol\";\n\ncontract FundMe {\n    using SafeMath for uint256;\n\n    mapping(address => uint256) public addressToAmountFunded;\n    address[] public funders;\n\n    address public owner;\n\n    constructor() {\n        owner = msg.sender;\n    }\n\n    function fund() public payable {\n        // Set minimum donation value (0.50 USD)\n        uint256 minUsd = 0.50 * 10**18;\n        require(\n            getConversionRate(msg.value) >= minUsd,\n            \"Donation amount too low ...\"\n        ); // If statement condition, won't continue if requirement is NOT met.\n        addressToAmountFunded[msg.sender] += msg.value;\n        funders.push(msg.sender);\n    }\n\n    function getVersion() public view returns (uint256) {\n        AggregatorV3Interface priceFeed = AggregatorV3Interface(\n            0x8A753747A1Fa494EC906cE90E9f37563A8AF630e\n        );\n        return priceFeed.version();\n    }\n\n    function getPrice() public view returns (uint256) {\n        AggregatorV3Interface priceFeed = AggregatorV3Interface(\n            0x8A753747A1Fa494EC906cE90E9f37563A8AF630e\n        );\n        (, int256 answer, , , ) = priceFeed.latestRoundData();\n        return uint256(answer * 10000000000);\n    }\n\n    function getConversionRate(uint256 ethAmount)\n        public\n        view\n        returns (uint256)\n    {\n        uint256 ethPrice = getPrice();\n        return (ethPrice * ethAmount) / 10000000000;\n    }\n\n    modifier onlyOwner() {\n        require(msg.sender == owner);\n        _;\n    }\n\n    function withdraw() public payable onlyOwner {\n        payable(msg.sender).transfer(address(this).balance);\n        for (\n            uint256 funderIndex = 0;\n            funderIndex < funders.length;\n            funderIndex++\n        ) {\n            address funder = funders[funderIndex];\n            addressToAmountFunded[funder] = 0;\n        }\n        funders = new address[](0);\n    }\n}\n","sourcePath":"contracts/FundMe.sol","type":"contract","deployment":{"address":"0x4e0D157c795D3E7528Eec53841952efc792416bf","chainid":"4","blockHeight":10772116}}